:1000000090C095C094C093C092C091C090C08FC062
:100010008EC08DC08CC08BC08AC089C088C087C08C
:1000200086C07F7F7F7F7F7F7F7F7F7C7874716DCD
:100030006B686563615F5D5B5A5856555452515009
:100040004E4D4C4B4A494847464544434342414044
:100050003F3F3E3D3D3C3B3A3A39393837373636FB
:1000600035343433333232313130302F2F2E2E2D80
:100070002D2C2C2B2B2A2A292929282827272626EC
:100080002625252424242323222222212120202046
:100090001F1F1F1E1E1D1D1D1C1C1C1B1B1B1A1A97
:1000A0001A191918181817171716161615151514E2
:1000B000141413131312121211111010100F0F0F2A
:1000C0000E0E0E0D0D0D0C0C0C0B0B0B0A0A090974
:1000D00009080808070707060605050504040303C1
:1000E0000302020101010000FFFFFFFEFEFDFDFC17
:1000F000FCFBFBFAFAF9F9F8F8F7F7F6F6F5F5F480
:10010000F3F3F2F2F1F0F0EFEEEDEDECEBEAE9E80B
:10011000E7E6E5E4E3E2E0DFDDDCDAD8D5D2CEC91C
:10012000C18111241FBECFEDCDBF15D33EC368CF13
:100130001BBA18BA1ABA87E087BB089583E080BF5C
:1001400081E083BF089587E886B980E183B98FEFA6
:1001500081B982E487B90895EBDFF0DFF4DF29E2AB
:1001600088E190E00FB6F894A89581BD0FBE21BD3F
:10017000089587B9369A3699FECF369A3699FECFCA
:1001800084B125B190E0922B089583E4F2DFE92F4A
:10019000F0E0EE5DFF4F84910895009729F480B759
:1001A0008F7380BF16BE089590B7906890BF81503E
:1001B00086BF089548B321E030E0B90102C0660F60
:1001C000771F8A95E2F7CB01842B88BB089598B3FB
:1001D00021E030E002C0220F331F8A95E2F720951C
:1001E000922398BB0895CF93DF93C5E0D0E080E0E1
:1001F000EEDF81E0DFDF2FEF80E792E021508040EB
:100200009040E1F700C0000081E0E1DF80E0D2DF54
:100210002FE788E391E0215080409040E1F700C053
:100220000000A8952197209711F780E0D0DF81E0AA
:10023000CEDFDF91CF910895CF92DF92EF92FF92C0
:100240000F931F93CF93DF9380E090E0A6DF81E0D0
:10025000BEDF00E010E0C0E0D0E0C12CD12C82E491
:1002600088DF7C0192DF0024EE0CFF1C001CEE0CEA
:10027000FF1C001CEF2CF02C27EEE21AF1089AEA82
:10028000E91692E0F90658F4865F8C3358F40F5F54
:100290001F4F0530110544F080E099DF1BC00C2D85
:1002A0001D2D02C00C2D1D2DCE0187709927892B85
:1002B00019F480E07FDF02C080E089DF21962FE71C
:1002C00089EA93E0215080409040E1F700C00000AF
:1002D000A895C5CFDF91CF911F910F91FF90EF901F
:1002E000DF90CF9008952F923F924F925F926F923E
:1002F0007F928F929F92AF92BF92CF92DF92EF92B6
:10030000FF920F931F93CF93DF9380E060DF81E034
:1003100051DF212C312CE12CF12CA12CB12CC12C42
:10032000D12C00E010E00F2EFAE07F2EF02D662495
:100330006394512C412C872D90E02FDF8DE419DF41
:100340004C018DE416DF0024880F991F001C880FD4
:10035000991F001C892F902D0024880C991C001CCB
:10036000880C991C001C892C902CEC01C80DD91DFF
:100370008DE4FFDE0024880F991F001C880F991F51
:10038000001C892F902DC80FD91F8DE4F2DE0024A8
:10039000880F991F001C880F991F001C892F902D12
:1003A000C80FD91FD595C795D595C795CE3F23E0E2
:1003B000D2073CF48AE078120AC0CE3592E0D90721
:1003C00034F080E090E0E9DE8FEF9FEFC5C0E114EC
:1003D000F10449F0CB30D10584F480E090E0DDDE1B
:1003E0008CEF9FEFB9C0962D852DCD32E1E0DE0771
:1003F00014F4942D80E0E92EF82EC7DE863F34F405
:1004000080E090E0CADE8CEF9FEFA6C0823334F02C
:1004100080E090E0C2DE8EEF9FEF9EC0CD35F2E02F
:10042000DF072CF42DEF271548F0739407C0CE3565
:10043000D24024F09AE0971508F47A940131EEE066
:100440001E0734F080E090E0A8DE80E090E084C0F9
:10045000A016B10609F46EC080E0ACDE8FEC97E028
:100460000197F1F700C0000080E0B1DEA895C80157
:1004700083709927892B09F058C082E47ADEEC0159
:1004800082E477DE0024880F991F001C880F991FD3
:10049000001C892F902D0024CC0FDD1F001CCC0FD9
:1004A000DD1F001CCD2FD02DC80FD91FC031D74064
:1004B000F4F1842D90E071DE80E07CDEEFEFF4E378
:1004C0002CE0E150F0402040E1F700C0000088E956
:1004D000C80ED11C80E07BDE9FEF291A390A82E426
:1004E00048DEEC0182E445DE0024880F991F001CE1
:1004F000880F991F001C892F902D0024CC0FDD1F21
:10050000001CCC0FDD1F001CCD2FD02DC80FD91F14
:10051000CE30D74024F4FCE42F16310454F080E0B0
:1005200090E03BDE80E090E017C0580103C0580126
:1005300001C05801C6010196823321E0920724F0E0
:10054000815391400F5F1F4FEFECF7E03197F1F7C8
:1005500000C000006C01EFCEDF91CF911F910F9191
:10056000FF90EF90DF90CF90BF90AF909F908F90D3
:100570007F906F905F904F903F902F9008959F9243
:10058000AF92BF92CF92DF92EF92FF920F931F93A1
:10059000CF93DF9380E090E000DE80E00BDE81E02F
:1005A00016DE0F2EFAE0BF2EF02DE12CF12C0F2ECF
:1005B000F6E99F2EF02DA12C82E4DBDDEC01E5DDD8
:1005C000C03CD94308F481C0865F8C3308F07DC0FD
:1005D000C70187709927892B09F069C081E0EADD9E
:1005E000C92DDA2D8B2D90E0D8DD8DE4C2DD6C01B4
:1005F0008DE4BFDD0024880F991F001C880F991F10
:10060000001C892F902D0024CC0CDD1C001CCC0C70
:10061000DD1C001CCD2CD02C8C010C0D1D1D8DE47F
:10062000A8DD0024880F991F001C880F991F001C4B
:10063000892F902D080F191F8DE49BDD0024880F52
:10064000991F001C880F991F001C892F902D080FDF
:10065000191FC80195958795959587958E3F23E03D
:10066000920734F080E090E098DD8FEF9FEF31C08B
:100670008A3421E092072CF48DEF8B1548F0B39467
:1006800007C08B34914024F08AE08B1508F4BA94AB
:100690008FEC97E00197F1F700C0000021972097B9
:1006A00009F0A0CF81E093DD80E090E076DD9FEF60
:1006B000E91AF90A2FEF83EC99E02150804090402D
:1006C000E1F700C00000A89577CF80E080DD80E0F2
:1006D00090E0DF91CF911F910F91FF90EF90DF900D
:1006E000CF90BF90AF909F900895FF920F931F936C
:1006F000CF93DF93F82E80E090E04FDDC0E0D0E0B4
:1007000082E437DD8C0141DD003C194310F0863F67
:100710001CF481E05CDD19C0C0FD05C081E04ADD4C
:1007200080E055DD06C081E052DDFF2011F080E061
:1007300041DD21969FEF21EE84E0915020408040E2
:10074000E1F700C00000A895DBCFDF91CF911F91AA
:100750000F91FF90089500DD46DD6EDD81E02ADD1A
:1007600080E035DDC0DDEC0181E031DD80E090E04E
:1007700014DDCF3F2FEFD20791F0209719F022968A
:1007800061F710C080E016DDFADE9FEF20E782E01F
:10079000915020408040E1F700C00000DECF81E0B2
:0E07A000A4DFDBCF80E0A1DFD8CFF894FFCF3D
:00000001FF
