:1000000010C01DC01CC01BC01AC019C018C017C02A
:1000100016C015C014C013C012C011C010C00FC04C
:100020000EC011241FBECFEDCDBF20E0A0E6B0E092
:1000300001C01D92A636B207E1F724D081C0E0CFFF
:1000400018BA84E087BB83E880BF81E083BF08954E
:100050001BBA1ABA87E886B980E183B98FEF81B9F4
:1000600082E487B90895ECDFF3DF089587B9369A03
:100070003699FECF369A3699FECF84B125B190E0FD
:10008000922B0895F0DF912C882483946624639446
:10009000712C0F2EF0E6AF2EF0E0BF2EF02D0F2EBC
:1000A000F2E6CF2EF0E0DF2EF02D0F2EF4E6EF2E4D
:1000B000F0E0FF2EF02D882029F02DEF291588F093
:1000C000939410C0992011F09A940CC08FEF93ED87
:1000D000E0E381509040E040E1F700C00000862C52
:1000E00001C0872C96BEFFEF20E782E0F150204050
:1000F0008040E1F700C000008DE4B8DF8C0183E4AC
:10010000B5DFEC0116BE82E4B1DF96BEF5012081B9
:1001100031812017310711F011830083F60120810E
:1001200031812817390711F091838083F70180818D
:1001300091818C179D0709F4BECFD183C083BBCFBB
:04014000F894FFCF61
:00000001FF
