:1000000090C09DC09CC09BC09AC099C098C097C02A
:1000100096C095C094C093C092C091C090C08FC04C
:100020008EC07F7F7F7F7F7F7F7F7F7C7874716DC5
:100030006B686563615F5D5B5A5856555452515009
:100040004E4D4C4B4A494847464544434342414044
:100050003F3F3E3D3D3C3B3A3A39393837373636FB
:1000600035343433333232313130302F2F2E2E2D80
:100070002D2C2C2B2B2A2A292929282827272626EC
:100080002625252424242323222222212120202046
:100090001F1F1F1E1E1D1D1D1C1C1C1B1B1B1A1A97
:1000A0001A191918181817171716161615151514E2
:1000B000141413131312121211111010100F0F0F2A
:1000C0000E0E0E0D0D0D0C0C0C0B0B0B0A0A090974
:1000D00009080808070707060605050504040303C1
:1000E0000302020101010000FFFFFFFEFEFDFDFC17
:1000F000FCFBFBFAFAF9F9F8F8F7F7F6F6F5F5F480
:10010000F3F3F2F2F1F0F0EFEEEDEDECEBEAE9E80B
:10011000E7E6E5E4E3E2E0DFDDDCDAD8D5D2CEC91C
:10012000C18111241FBECFEDCDBF20E0A0E6B0E01D
:1001300001C01D92A036B207E1F742D29FC260CF44
:100140001BBA18BA1ABA87E087BB089581E080BF4E
:1001500083BF089587E886B980E183B98FEF81B9BD
:1001600082E487B90895ECDFF1DFF4DF089587B901
:10017000369A3699FECF369A3699FECF84B125B19C
:1001800090E0922B089583E4F2DFE92FF0E0EE5D3A
:10019000FF4F84910895009729F480B78F7380BF33
:1001A00016BE089590B7906890BF815086BF08959D
:1001B000CF93DF9380E090E0EEDF82E4D8DFEC01C4
:1001C000E2DF0024CC0FDD1F001CCC0FDD1F001C64
:1001D000CD2FD02DC75ED109CA3AD24018F4865F20
:1001E0008B3350F08FEF94E32CE08150904020400F
:1001F000E1F700C00000E1CFDF91CF91089548B34F
:1002000021E030E0B90102C0660F771F8A95E2F75E
:10021000CB01842B88BB089598B321E030E002C065
:10022000220F331F8A95E2F72095922398BB0895F9
:100230006F927F929F92AF92BF92CF92DF92EF9296
:10024000FF920F931F93CF93DF9380E0E5DF81E070
:10025000D6DFE12CF12C00E010E0C0E0D0E00F2E62
:10026000FAE09F2EF02D0F2EF3E0CF2ED12CF02DA3
:10027000892D90E090DF8DE47ADF3C018DE477DF1B
:100280000024880F991F001C880F991F001C892FBC
:10029000902D0024660C771C001C660C771C001C3B
:1002A000672C702C5C01A60CB71C8DE460DF002469
:1002B000880F991F001C880F991F001C892F902DF3
:1002C000A80EB91E8DE453DF0024880F991F001C6F
:1002D000880F991F001C892F902DA80EB91EC501EB
:1002E00095958795959587958C3F23E0920734F0F7
:1002F00080E090E050DF8FEF9FEF6DC0883022E00C
:1003000092072CF48DEF891548F0939407C089303B
:10031000924024F08AE0891508F49A94C1319EE055
:10032000D9070CF053C0EC16FD06F1F1CE01B60171
:100330007ED1892BC1F580E090E02DDF2FEF83EC9B
:1003400099E0215080409040E1F700C0000082E435
:100350000EDF7C0182E40BDF0024880F991F001C54
:10036000880F991F001C892F902D0024EE0CFF1C74
:10037000001CEE0CFF1C001CEF2CF02CE80EF91EEC
:10038000F594E79400DF865F8B3330F080E090E0F7
:1003900002DF8EEF9FEF1FC029E8E21623E0F2068E
:1003A000C4F47E0101C07E01C8010196853021E0C0
:1003B000920724F003501140219601C08C018FEC6C
:1003C00097E00197F1F700C0000052CF80E090E085
:1003D00002C080E090E0DF91CF911F910F91FF90DC
:1003E000EF90DF90CF90BF90AF909F907F906F90F5
:1003F00008959F92AF92BF92CF92DF92EF92FF92B9
:100400000F931F93CF93DF9380E090E0C4DE0F2E15
:10041000FAE0BF2EF02DE12CF12C0F2EF6E99F2EE5
:10042000F02DA12C82E4A3DEEC01ADDEC03CD9436B
:1004300008F47FC0865F8B3308F07BC08FEF93ECAE
:1004400029E0815090402040E1F700C000008FEF8C
:10045000E81AF80AC70187709927892B19F781E0F4
:10046000CEDEC92DDA2D8B2D90E095DE8DE47FDE7A
:100470006C018DE47CDE0024880F991F001C880F1E
:10048000991F001C892F902D0024CC0CDD1C001C12
:10049000CC0CDD1C001CCD2CD02C8C010C0D1D1D9A
:1004A0008DE465DE0024880F991F001C880F991FBA
:1004B000001C892F902D080F191F8DE458DE002491
:1004C000880F991F001C880F991F001C892F902DE1
:1004D000080F191FC80195958795959587958C3FAD
:1004E00023E0920734F080E090E055DE8FEF9FEF3D
:1004F00024C08A3421E092072CF48DEF8B1548F04C
:10050000B39407C08B34914024F08AE08B1508F433
:10051000BA948FEC97E00197F1F700C000002197A3
:10052000209709F0A0CF81E077DE80E090E033DE15
:1005300079CF80E071DE80E090E0DF91CF911F9174
:100540000F91FF90EF90DF90CF90BF90AF909F9072
:1005500008950F931F93CF93DF9380E090E01BDE0D
:10056000C0E0D0E082E403DE8C010DDE003C1943E4
:1005700010F0863F2CF481E04FDE80E04DDE1BC0A2
:10058000CE0187709927009729F481E038DE80E05A
:1005900043DE06C0039721F481E03EDE80E03CDECE
:1005A00021968FEF90E722E0815090402040E1F7C4
:1005B00000C00000D7CFDF91CF911F910F91089518
:1005C000D2DD81E01CDE2FEF89E698E121508040EA
:1005D0009040E1F700C0000081E01EDE80E00FDE09
:1005E0002FEF89E698E1215080409040E1F700C06C
:1005F000000080E011DEDCDD81E001DE80E00CDE69
:1006000017DE992314F4A5DFF6CF80E090E0C3DD78
:1006100081E002DE80E0F3DDECDE2FEF80E792E0A8
:10062000215080409040E1F700C00000E4CF97FBEC
:10063000072E16F4009406D077FD08D00BD007FCE7
:1006400005D03EF4909581959F4F089570956195E2
:100650007F4F0895AA1BBB1B51E107C0AA1FBB1FF8
:10066000A617B70710F0A61BB70B881F991F5A953E
:10067000A9F780959095BC01CD010895F894FFCF1E
:00000001FF
