:1000000090C09DC09CC09BC09AC099C098C097C02A
:1000100096C095C094C093C092C091C090C08FC04C
:100020008EC07F7F7F7F7F7F7F7F7F7C7874716DC5
:100030006B686563615F5D5B5A5856555452515009
:100040004E4D4C4B4A494847464544434342414044
:100050003F3F3E3D3D3C3B3A3A39393837373636FB
:1000600035343433333232313130302F2F2E2E2D80
:100070002D2C2C2B2B2A2A292929282827272626EC
:100080002625252424242323222222212120202046
:100090001F1F1F1E1E1D1D1D1C1C1C1B1B1B1A1A97
:1000A0001A191918181817171716161615151514E2
:1000B000141413131312121211111010100F0F0F2A
:1000C0000E0E0E0D0D0D0C0C0C0B0B0B0A0A090974
:1000D00009080808070707060605050504040303C1
:1000E0000302020101010000FFFFFFFEFEFDFDFC17
:1000F000FCFBFBFAFAF9F9F8F8F7F7F6F6F5F5F480
:10010000F3F3F2F2F1F0F0EFEEEDEDECEBEAE9E80B
:10011000E7E6E5E4E3E2E0DFDDDCDAD8D5D2CEC91C
:10012000C18111241FBECFEDCDBF20E0A0E6B0E01D
:1001300001C01D92A036B207E1F7E0D0EDC060CF5C
:100140001BBA18BA1ABA84E087BB089583E880BF47
:1001500081E083BF089587E886B980E183B98FEF96
:1001600081B982E487B90895EBDFF0DFF4DF089509
:1001700087B9369A3699FECF369A3699FECF84B132
:1001800025B190E0922B089583E4F2DFE92FF0E0AF
:10019000EE5DFF4F84910895CF93DF9316BE82E406
:1001A000E7DFEC01F1DF0024CC0FDD1F001CCC0FDA
:1001B000DD1F001CCD2FD02DC75ED109CA3AD24019
:1001C00018F48C5E873450F08FEF94E32CE081506C
:1001D00090402040E1F700C00000E1CFDF91CF91D7
:1001E0000895DF92EF92FF920F931F93CF93DF93C7
:1001F000C0E0D0E00F2EF8E2DF2EF02DD6BE8DE469
:10020000B7DF0024880F991F001C880F991F001C5E
:10021000892F902D883E23E092071CF016BE8FEFA9
:100220003FC0803E21E092072CF48DEF8D1548F001
:10023000D39407C0813E914024F088E28D1508F4E4
:10024000DA94CE0193708F3F934011F516BE8FE183
:100250009EE40197F1F700C0000082E489DF8C0181
:100260000024000F111F001C000F111F001C012F84
:10027000102D8ADF8C5E873418F016BE8EEF10C00A
:10028000043893E0190724F016BE802F880F08C0A9
:1002900021968FEC97E00197F1F700C00000AECFF8
:1002A000DF91CF911F910F91FF90EF90DF90089514
:1002B000CF93DF9316BE82E45BDFEC0165DF0024A1
:1002C000CC0FDD1F001CCC0FDD1F001CCD2FD02D4F
:1002D000C75ED109CA3AD24068F48C5E873450F4C4
:1002E0008FEF94E32CE0815090402040E1F700C074
:1002F0000000E1CF80E0DF91CF91089535DF4CDF42
:1003000070DFD6DF2FEF83E294EF215080409040E2
:0C031000E1F700C00000F3CFF894FFCF2D
:00000001FF
