:1000000090C095C094C093C092C091C090C08FC062
:100010008EC08DC08CC08BC08AC089C088C087C08C
:1000200086C07F7F7F7F7F7F7F7F7F7C7874716DCD
:100030006B686563615F5D5B5A5856555452515009
:100040004E4D4C4B4A494847464544434342414044
:100050003F3F3E3D3D3C3B3A3A39393837373636FB
:1000600035343433333232313130302F2F2E2E2D80
:100070002D2C2C2B2B2A2A292929282827272626EC
:100080002625252424242323222222212120202046
:100090001F1F1F1E1E1D1D1D1C1C1C1B1B1B1A1A97
:1000A0001A191918181817171716161615151514E2
:1000B000141413131312121211111010100F0F0F2A
:1000C0000E0E0E0D0D0D0C0C0C0B0B0B0A0A090974
:1000D00009080808070707060605050504040303C1
:1000E0000302020101010000FFFFFFFEFEFDFDFC17
:1000F000FCFBFBFAFAF9F9F8F8F7F7F6F6F5F5F480
:10010000F3F3F2F2F1F0F0EFEEEDEDECEBEAE9E80B
:10011000E7E6E5E4E3E2E0DFDDDCDAD8D5D2CEC91C
:10012000C18111241FBECFEDCDBF84D2ADC268CF37
:100130001BBA18BA1ABA87E087BB089583E080BF5C
:1001400081E083BF089587E886B980E183B98FEFA6
:1001500081B982E487B90895EBDFF0DFF4DF29E2AB
:1001600088E190E00FB6F894A89581BD0FBE21BD3F
:10017000089587B9369A3699FECF369A3699FECFCA
:1001800084B125B190E0922B089583E4F2DFE92F4A
:10019000F0E0EE5DFF4F84910895009729F480B759
:1001A0008F7380BF16BE089590B7906890BF81503E
:1001B00086BF089548B321E030E0B90102C0660F60
:1001C000771F8A95E2F7CB01842B88BB089598B3FB
:1001D00021E030E002C0220F331F8A95E2F720951C
:1001E000922398BB0895CF93DF93C5E0D0E080E0E1
:1001F000EEDF81E0DFDF2FEF80E792E021508040EB
:100200009040E1F700C0000081E0E1DF80E0D2DF54
:100210002FE788E391E0215080409040E1F700C053
:100220000000A8952197209711F780E0D0DF81E0AA
:10023000CEDFDF91CF910895CF92DF92EF92FF92C0
:100240000F931F93CF93DF9380E090E0A6DF81E0D0
:10025000BEDF00E010E0C0E0D0E0C12CD12C82E491
:1002600088DF7C0192DF0024EE0CFF1C001CEE0CEA
:10027000FF1C001CEF2CF02C27EEE21AF1089AEA82
:10028000E91692E0F90658F4865F8C3358F40F5F54
:100290001F4F0530110544F080E099DF1BC00C2D85
:1002A0001D2D02C00C2D1D2DCE0187709927892B85
:1002B00019F480E07FDF02C080E089DF21962FE71C
:1002C00089EA93E0215080409040E1F700C00000AF
:1002D000A895C5CFDF91CF911F910F91FF90EF901F
:1002E000DF90CF9008953F924F925F926F927F92EE
:1002F0008F929F92AF92BF92CF92DF92EF92FF9236
:100300000F931F93CF93DF9380E061DF81E052DF93
:10031000E12CF12CA12CB12CC12CD12C00E010E04F
:100320000F2EFAE07F2EF02D66246394512C412C81
:10033000312C872D90E031DF8DE41BDF4C018DE403
:1003400018DF0024880F991F001C880F991F001CBC
:10035000892F902D0024880C991C001C880C991C56
:10036000001C892C902CEC01C80DD91D8DE401DFF7
:100370000024880F991F001C880F991F001C892FCB
:10038000902DC80FD91F8DE4F4DE0024880F991F2B
:10039000001C880F991F001C892F902DC80FD91F92
:1003A000D595C795D595C795CE3F23E0D2073CF4A8
:1003B0008AE078120AC0CE3592E0D90734F080E0A6
:1003C00090E0EBDE8FEF9FEFC8C0E114F10449F03D
:1003D000CB30D10584F480E090E0DFDE8CEF9FEF3E
:1003E000BCC0962D852DCD3221E0D20714F4942D7A
:1003F000832DE92EF82EC9DE863F34F480E090E0AC
:10040000CCDE8CEF9FEFA9C0823334F080E090E027
:10041000C4DE8EEF9FEFA1C0CD3582E0D8072CF46B
:100420009DEF971548F0739407C0CE35D24024F065
:100430008AE0871508F47A9401319EE0190734F0B8
:1004400080E090E0AADE80E090E087C0A016B106D0
:1004500009F46EC0A89580E0ADDE8FEC97E00197BF
:10046000F1F700C0000080E0B2DE093B9BE0190715
:100470000CF457C0C80183709927892B09F053C029
:1004800082E477DEEC0182E474DE0024880F991F99
:10049000001C880F991F001C892F902D0024CC0F61
:1004A000DD1F001CCC0FDD1F001CCD2FD02DC80F71
:1004B000D91FC031D740CCF1842D932D6EDE80E062
:1004C00079DE8FEF94E32CE0815090402040E1F7FB
:1004D00000C0000088E9C80ED11C80E078DE82E40C
:1004E00048DEEC0182E445DE0024880F991F001CE1
:1004F000880F991F001C892F902D0024CC0FDD1F21
:10050000001CCC0FDD1F001CCD2FD02DC80FD91F14
:10051000CE30D74064F080E090E03FDE80E090E0B5
:100520001CC0580105C0580103C0580101C0580142
:10053000C6010196813321E092073CF08FE2C81A90
:1005400081E0D80A0F5F1F4F01C06C018FEC97E06C
:100550000197F1F700C00000ECCEDF91CF911F9121
:100560000F91FF90EF90DF90CF90BF90AF909F9052
:100570008F907F906F905F904F903F900895CF93B2
:10058000DF9380E090E009DE80E014DE81E01FDE92
:1005900082E4EFDDEC01F9DDC03CD94370F0865F09
:1005A0008C3358F48FEF93EC29E081509040204039
:1005B000E1F700C00000A895EBCF80E008DE80E006
:1005C00090E0DF91CF910895FF920F931F93CF9307
:1005D000DF93F82E80E090E0E0DDC0E0D0E082E440
:1005E000C8DD8C01D2DD003C194310F0863F1CF4BD
:1005F00081E0EDDD19C0C0FD05C081E0DBDD80E0FC
:10060000E6DD06C081E0E3DDFF2011F080E0D2DD11
:1006100021969FEF21EE84E0915020408040E1F749
:1006200000C00000A895DBCFDF91CF911F910F9103
:10063000FF90089591DDD7DDFFDD81E0BBDD80E037
:10064000C6DD51DEEC0181E0C2DD80E090E0A5DD99
:10065000CF3F2FEFD20791F0209719F0229661F744
:1006600010C080E0A7DD8BDF9FEF20E782E0915094
:1006700020408040E1F700C00000DECF81E0A4DF31
:0C068000DBCF80E0A1DFD8CFF894FFCFE3
:00000001FF
