:1000000090C095C094C093C092C091C090C08FC062
:100010008EC08DC08CC08BC08AC089C088C087C08C
:1000200086C07F7F7F7F7F7F7F7F7F7C7874716DCD
:100030006B686563615F5D5B5A5856555452515009
:100040004E4D4C4B4A494847464544434342414044
:100050003F3F3E3D3D3C3B3A3A39393837373636FB
:1000600035343433333232313130302F2F2E2E2D80
:100070002D2C2C2B2B2A2A292929282827272626EC
:100080002625252424242323222222212120202046
:100090001F1F1F1E1E1D1D1D1C1C1C1B1B1B1A1A97
:1000A0001A191918181817171716161615151514E2
:1000B000141413131312121211111010100F0F0F2A
:1000C0000E0E0E0D0D0D0C0C0C0B0B0B0A0A090974
:1000D00009080808070707060605050504040303C1
:1000E0000302020101010000FFFFFFFEFEFDFDFC17
:1000F000FCFBFBFAFAF9F9F8F8F7F7F6F6F5F5F480
:10010000F3F3F2F2F1F0F0EFEEEDEDECEBEAE9E80B
:10011000E7E6E5E4E3E2E0DFDDDCDAD8D5D2CEC91C
:10012000C18111241FBECFEDCDBFF3D21AC368CF5A
:100130001BBA18BA1ABA87E087BB089583E080BF5C
:1001400081E083BF089587E886B980E183B98FEFA6
:1001500081B982E487B90895EBDFF0DFF4DF089519
:1001600087B9369A3699FECF369A3699FECF84B142
:1001700025B190E0922B089583E4F2DFE92FF0E0BF
:10018000EE5DFF4F84910895009729F480B78F7337
:1001900080BF16BE089590B7906890BF815086BF0B
:1001A000089548B321E030E0B90102C0660F771F1F
:1001B0008A95E2F7CB01842B88BB089598B321E0A0
:1001C00030E002C0220F331F8A95E2F72095922378
:1001D00098BB0895CF93DF93C3E0D0E080E0EEDFDB
:1001E00081E0DFDF2FE78AE196E0215080409040F8
:1001F000E1F700C0000081E0E1DF80E0D2DF2FEF17
:1002000080E792E0215080409040E1F700C000007C
:100210002197209719F780E0D1DF81E0CFDFDF91D0
:10022000CF910895CF92DF92EF92FF920F931F9399
:10023000CF93DF9380E090E0A7DF81E0BFDF00E0B5
:1002400010E0C0E0D0E0C12CD12C82E489DF7C0139
:1002500093DF0024EE0CFF1C001CEE0CFF1C001CA6
:10026000EF2CF02C27EEE21AF1089AEAE91692E058
:10027000F90658F4865F8C3358F40F5F1F4F053032
:10028000110544F080E09ADF1AC00C2D1D2D02C02C
:100290000C2D1D2DCE0187709927892B19F480E034
:1002A00080DF02C080E08ADF21962FE789EA93E0B1
:1002B000215080409040E1F700C00000C6CFDF91A0
:1002C000CF911F910F91FF90EF90DF90CF90089505
:1002D0003F924F925F926F927F928F929F92AF92D6
:1002E000BF92CF92DF92EF92FF920F931F93CF9323
:1002F000DF9380E063DF81E054DFE12CF12CA12C5F
:10030000B12CC12CD12C00E010E00F2EFAE07F2E92
:10031000F02D66246394512C412C312C872D90E0D4
:1003200033DF8DE41DDF4C018DE41ADF0024880FDC
:10033000991F001C880F991F001C892F902D0024E5
:10034000880C991C001C880C991C001C892C902C72
:10035000EC01C80DD91D8DE403DF0024880F991F1F
:10036000001C880F991F001C892F902DC80FD91FC2
:100370008DE4F6DE0024880F991F001C880F991F5A
:10038000001C892F902DC80FD91FD595C795D595DD
:10039000C795CE3F23E0D20734F080E090E0F4DE52
:1003A0008FEF9FEF90C0E114F10449F0CB30D105FD
:1003B00084F480E090E0E8DE8CEF9FEF84C0962D1F
:1003C000852DCD32E1E0DE0714F4942D832DE92E46
:1003D000F82ED2DE863F34F480E090E0D5DE8CEF5C
:1003E0009FEF71C0823334F080E090E0CDDE8EEF7D
:1003F0009FEF69C0C736F2E0DF072CF42DEF271519
:1004000048F0739407C0C836D24024F09AE097159C
:1004100008F47A940131EEE01E0734F080E090E0B9
:10042000B3DE80E090E04FC0A016B106D1F1C80164
:1004300083709927892B91F5842D932DA5DE80E07B
:10044000B0DEFFEF23EC89E0F15020408040E1F77F
:1004500000C0000080E0B2DE82E482DEEC0182E4D3
:100460007FDE0024880F991F001C880F991F001C35
:10047000892F902D0024CC0FDD1F001CCC0FDD1F19
:10048000001CCD2FD02DC80FD91FC231D74044F04A
:1004900080E090E079DE80E090E015C0580101C076
:1004A0005801C60101968731E1E09E0724F086518C
:1004B00091400F5F1F4FEFECF7E03197F1F700C06D
:1004C00000006C012BCFDF91CF911F910F91FF9016
:1004D000EF90DF90CF90BF90AF909F908F907F90E4
:1004E0006F905F904F903F9008959F92AF92BF9210
:1004F000CF92DF92EF92FF920F931F93CF93DF93F0
:1005000080E090E041DE80E04CDE81E057DE0F2E9F
:10051000FAE0BF2EF02DE12CF12C0F2EF6E99F2EE4
:10052000F02DA12C82E41CDEEC0126DEC03CD94378
:1005300008F47FC0865F8C3308F07BC08FEF93ECAC
:1005400029E0815090402040E1F700C000008FEF8B
:10055000E81AF80AC70187709927892B19F781E0F3
:1005600020DEC92DDA2D8B2D90E00EDE8DE4F8DD36
:100570006C018DE4F5DD0024880F991F001C880FA5
:10058000991F001C892F902D0024CC0CDD1C001C11
:10059000CC0CDD1C001CCD2CD02C8C010C0D1D1D99
:1005A0008DE4DEDD0024880F991F001C880F991F41
:1005B000001C892F902D080F191F8DE4D1DD002418
:1005C000880F991F001C880F991F001C892F902DE0
:1005D000080F191FC80195958795959587958E3FAA
:1005E00023E0920734F080E090E0CEDD8FEF9FEFC4
:1005F00024C08A3421E092072CF48DEF8B1548F04B
:10060000B39407C08B34914024F08AE08B1508F432
:10061000BA948FEC97E00197F1F700C000002197A2
:10062000209709F0A0CF81E0C9DD80E090E0ACDD4B
:1006300079CF80E0C3DD80E090E0DF91CF911F9122
:100640000F91FF90EF90DF90CF90BF90AF909F9071
:1006500008950F931F93CF93DF9380E090E094DD94
:1006600080E0ACDDC0E0D0E082E47ADD8C0184DDA6
:10067000003C194310F0863F1CF481E09FDD12C05E
:10068000C0FD03C081E08DDD02C081E097DD2196D1
:100690009FEF21EE84E0915020408040E1F700C0C0
:1006A0000000E2CFDF91CF911F910F9108950F933A
:1006B0001F93CF93DF9380E090E066DD80E07EDDE6
:1006C000C0E0D0E082E44CDD8C0156DD003C1943F3
:1006D00010F0863F1CF481E071DD16C0C0FD05C03E
:1006E00081E05FDD80E06ADD04C080E05ADD81E00A
:1006F00065DD21969FEF21EE84E0915020408040FF
:10070000E1F700C00000DECFDF91CF911F910F9184
:10071000089522DD5FDD86DD81E043DD80E04EDD92
:10072000D7DDEC0181E04ADD80E090E02DDDCF3FB8
:100730002FEFD20791F0209719F0229661F70FC0A2
:1007400080E02FDDD2DE9FEF20E782E09150204055
:100750008040E1F700C00000DECFA9DFDCCF79DF09
:06076000DACFF894FFCF90
:00000001FF
