:1000000090C09DC09CC09BC09AC099C098C097C02A
:1000100096C095C094C093C092C091C090C08FC04C
:100020008EC07F7F7F7F7F7F7F7F7F7C7874716DC5
:100030006B686563615F5D5B5A5856555452515009
:100040004E4D4C4B4A494847464544434342414044
:100050003F3F3E3D3D3C3B3A3A39393837373636FB
:1000600035343433333232313130302F2F2E2E2D80
:100070002D2C2C2B2B2A2A292929282827272626EC
:100080002625252424242323222222212120202046
:100090001F1F1F1E1E1D1D1D1C1C1C1B1B1B1A1A97
:1000A0001A191918181817171716161615151514E2
:1000B000141413131312121211111010100F0F0F2A
:1000C0000E0E0E0D0D0D0C0C0C0B0B0B0A0A090974
:1000D00009080808070707060605050504040303C1
:1000E0000302020101010000FFFFFFFEFEFDFDFC17
:1000F000FCFBFBFAFAF9F9F8F8F7F7F6F6F5F5F480
:10010000F3F3F2F2F1F0F0EFEEEDEDECEBEAE9E80B
:10011000E7E6E5E4E3E2E0DFDDDCDAD8D5D2CEC91C
:10012000C18111241FBECFEDCDBF20E0A0E6B0E01D
:1001300001C01D92A036B207E1F76DD182C160CF38
:100140001BBA18BA1ABA87E087BB089581E080BF4E
:1001500083BF089587E886B980E183B98FEF81B9BD
:1001600082E487B90895ECDFF1DFF4DF089587B901
:10017000369A3699FECF369A3699FECF84B125B19C
:1001800090E0922B089583E4F2DFE92FF0E0EE5D3A
:10019000FF4F84910895009729F480B78F7380BF33
:1001A00016BE089590B7906890BF815086BF08959D
:1001B000CF93DF9380E090E0EEDF82E4D8DFEC01C4
:1001C000E2DF0024CC0FDD1F001CCC0FDD1F001C64
:1001D000CD2FD02DC75ED109CA3AD24018F4865F20
:1001E000883350F08FEF94E32CE081509040204012
:1001F000E1F700C00000E1CFDF91CF91089548B34F
:1002000021E030E0B90102C0660F771F8A95E2F75E
:10021000CB01842B88BB089598B321E030E002C065
:10022000220F331F8A95E2F72095922398BB0895F9
:10023000CF92DF92EF92FF921F93CF93DF9380E0F4
:10024000EBDF81E0DCDFC12CD12C76011AE0812FBD
:1002500090E0A1DF8DE48BDFEC018DE488DF0024EA
:10026000880F991F001C880F991F001C892F902D43
:100270000024CC0FDD1F001CCC0FDD1F001CCD2F78
:10028000D02D8C0F9D1F95958795883E23E0920772
:100290002CF080E090E07FDF8FEF6EC0883022E0AE
:1002A000920724F41E3F40F41F5F06C0893092403D
:1002B0001CF01B3008F0115081E8C8168EEED806ED
:1002C00086E3E806F10449F480E090E064DF80E032
:1002D00096DF81E0A1DF80E04FC0D701C6019370B7
:1002E000AA27BB278F3F9340A105B105C9F580E040
:1002F00090E051DF8FE39CE90197F1F700C0000027
:1003000082E435DFEC0182E432DF0024880F991F9C
:10031000001C880F991F001C892F902D0024CC0FE2
:10032000DD1F001CCC0FDD1F001CCD2FD02DC80FF2
:10033000D91FD595C79527DF865F883328F080E0E1
:1003400090E029DF8EEF18C0C438D3404CF080E035
:1003500090E021DF80E053DF81E05EDF80E00CC0D1
:100360002FEFC21AD20AE20AF20A8FEC97E0019745
:10037000F1F700C000006BCFDF91CF911F91FF908C
:10038000EF90DF90CF9008950F931F93CF93DF935B
:1003900080E090E000DFC0E0D0E082E4E8DE8C01A5
:1003A000F2DE0024000F111F001C000F111F001CA3
:1003B000012F102D075E11090A3A124030F5865FB1
:1003C000883318F58FEF94E32CE081509040204063
:1003D000E1F700C000002196CE0183709927892B98
:1003E000E1F684E690E0D7DE81E009DF8FE799EA65
:1003F00023E0815090402040E1F700C0000081E000
:100400000BDF80E090E0C7DEC8CF80E0DF91CF91C6
:100410001F910F910895A7DECBDE81E0F0DE80E032
:10042000FBDE06DF81E0F8DE80E0E9DEADDF2FEF06
:1004300080E792E0215080409040E1F700C000004A
:06044000EBCFF894FFCFA2
:00000001FF
