:1000000090C095C094C093C092C091C090C08FC062
:100010008EC08DC08CC08BC08AC089C088C087C08C
:1000200086C07F7F7F7F7F7F7F7F7F7C7874716DCD
:100030006B686563615F5D5B5A5856555452515009
:100040004E4D4C4B4A494847464544434342414044
:100050003F3F3E3D3D3C3B3A3A39393837373636FB
:1000600035343433333232313130302F2F2E2E2D80
:100070002D2C2C2B2B2A2A292929282827272626EC
:100080002625252424242323222222212120202046
:100090001F1F1F1E1E1D1D1D1C1C1C1B1B1B1A1A97
:1000A0001A191918181817171716161615151514E2
:1000B000141413131312121211111010100F0F0F2A
:1000C0000E0E0E0D0D0D0C0C0C0B0B0B0A0A090974
:1000D00009080808070707060605050504040303C1
:1000E0000302020101010000FFFFFFFEFEFDFDFC17
:1000F000FCFBFBFAFAF9F9F8F8F7F7F6F6F5F5F480
:10010000F3F3F2F2F1F0F0EFEEEDEDECEBEAE9E80B
:10011000E7E6E5E4E3E2E0DFDDDCDAD8D5D2CEC91C
:10012000C18111241FBECFEDCDBFF8D221C368CF4E
:100130001BBA18BA1ABA87E087BB089583E080BF5C
:1001400081E083BF089587E886B980E183B98FEFA6
:1001500081B982E487B90895EBDFF0DFF4DF089519
:1001600087B9369A3699FECF369A3699FECF84B142
:1001700025B190E0922B089583E4F2DFE92FF0E0BF
:10018000EE5DFF4F84910895009729F480B78F7337
:1001900080BF16BE089590B7906890BF815086BF0B
:1001A000089548B321E030E0B90102C0660F771F1F
:1001B0008A95E2F7CB01842B88BB089598B321E0A0
:1001C00030E002C0220F331F8A95E2F72095922378
:1001D00098BB0895CF93DF93C5E0D0E080E0EEDFD9
:1001E00081E0DFDF2FEF80E792E0215080409040F8
:1001F000E1F700C0000081E0E1DF80E0D2DF2FE71F
:1002000088E391E0215080409040E1F700C0000079
:100210002197209719F780E0D1DF81E0CFDFDF91D0
:10022000CF910895CF92DF92EF92FF920F931F9399
:10023000CF93DF9380E090E0A7DF81E0BFDF00E0B5
:1002400010E0C0E0D0E0C12CD12C82E489DF7C0139
:1002500093DF0024EE0CFF1C001CEE0CFF1C001CA6
:10026000EF2CF02C27EEE21AF1089AEAE91692E058
:10027000F90658F4865F8C3358F40F5F1F4F053032
:10028000110544F080E09ADF1AC00C2D1D2D02C02C
:100290000C2D1D2DCE0187709927892B19F480E034
:1002A00080DF02C080E08ADF21962FE789EA93E0B1
:1002B000215080409040E1F700C00000C6CFDF91A0
:1002C000CF911F910F91FF90EF90DF90CF90089505
:1002D0003F924F925F926F927F928F929F92AF92D6
:1002E000BF92CF92DF92EF92FF920F931F93CF9323
:1002F000DF9380E063DF81E054DFE12CF12CA12C5F
:10030000B12CC12CD12C00E010E00F2EFAE07F2E92
:10031000F02D66246394512C412C312C872D90E0D4
:1003200033DF8DE41DDF4C018DE41ADF0024880FDC
:10033000991F001C880F991F001C892F902D0024E5
:10034000880C991C001C880C991C001C892C902C72
:10035000EC01C80DD91D8DE403DF0024880F991F1F
:10036000001C880F991F001C892F902DC80FD91FC2
:100370008DE4F6DE0024880F991F001C880F991F5A
:10038000001C892F902DC80FD91FD595C795D595DD
:10039000C795CE3F23E0D20734F080E090E0F4DE52
:1003A0008FEF9FEFC0C0E114F10449F0CB30D105CD
:1003B00084F480E090E0E8DE8CEF9FEFB4C0962DEF
:1003C000852DCD3221E0D20714F4942D832DE92E12
:1003D000F82ED2DE863F34F480E090E0D5DE8CEF5C
:1003E0009FEFA1C0823334F080E090E0CDDE8EEF4D
:1003F0009FEF99C0C83582E0D8072CF49DEF971580
:1004000048F0739407C0C935D24024F08AE08715BC
:1004100008F47A9401319EE0190734F080E090E00E
:10042000B3DE80E090E07FC0A016B10609F466C09C
:1004300080E0B7DE8FEC97E00197F1F700C0000095
:1004400080E0BCDEC80183709927892B09F051C078
:1004500082E486DEEC0182E483DE0024880F991FAB
:10046000001C880F991F001C892F902D0024CC0F91
:10047000DD1F001CCC0FDD1F001CCD2FD02DC80FA1
:10048000D91FC431D740BCF1842D932D7DDE80E08F
:1004900088DE2FEF84E39CE0215080409040E1F71C
:1004A00000C0000028E9C20ED11C80E087DE82E493
:1004B00057DEEC0182E454DE0024880F991F001CF3
:1004C000880F991F001C892F902D0024CC0FDD1F51
:1004D000001CCC0FDD1F001CCD2FD02DC80FD91F45
:1004E000C231D74054F080E090E04EDE80E090E0F2
:1004F0001AC0580103C0580101C05801C601019635
:10050000823321E092073CF080E3C81A81E0D80AE8
:100510000F5F1F4F01C06C018FEC97E00197F1F75F
:1005200000C00000FBCEDF91CF911F910F91FF9093
:10053000EF90DF90CF90BF90AF909F908F907F9083
:100540006F905F904F903F9008959F92AF92BF92AF
:10055000CF92DF92EF92FF920F931F93CF93DF938F
:1005600080E090E011DE80E01CDE81E027DE0F2ECF
:10057000FAE0BF2EF02DE12CF12C0F2EF6E99F2E84
:10058000F02DA12C82E4ECDDEC01F6DDC03CD9437A
:1005900008F47FC0865F8C3308F07BC08FEF93EC4C
:1005A00029E0815090402040E1F700C000008FEF2B
:1005B000E81AF80AC70187709927892B19F781E093
:1005C000F0DDC92DDA2D8B2D90E0DEDD8DE4C8DD68
:1005D0006C018DE4C5DD0024880F991F001C880F75
:1005E000991F001C892F902D0024CC0CDD1C001CB1
:1005F000CC0CDD1C001CCD2CD02C8C010C0D1D1D39
:100600008DE4AEDD0024880F991F001C880F991F10
:10061000001C892F902D080F191F8DE4A1DD0024E7
:10062000880F991F001C880F991F001C892F902D7F
:10063000080F191FC80195958795959587958E3F49
:1006400023E0920734F080E090E09EDD8FEF9FEF93
:1006500024C08A3421E092072CF48DEF8B1548F0EA
:10066000B39407C08B34914024F08AE08B1508F4D2
:10067000BA948FEC97E00197F1F700C00000219742
:10068000209709F0A0CF81E099DD80E090E07CDD4B
:1006900079CF80E093DD80E090E0DF91CF911F91F2
:1006A0000F91FF90EF90DF90CF90BF90AF909F9011
:1006B0000895FF920F931F93CF93DF93F82E80E05E
:1006C00090E062DDC0E0D0E082E44ADD8C0154DDE0
:1006D000003C194310F0863F1CF481E06FDD18C028
:1006E000C0FD05C081E05DDD80E068DD06C081E021
:1006F00065DDFF2011F080E054DD21969FEF21EEB3
:1007000084E0915020408040E1F700C00000DCCF41
:10071000DF91CF911F910F91FF9008951DDD5ADD5C
:1007200081DD81E03EDD80E049DDD2DDEC0181E06C
:1007300045DD80E090E028DDCF3F2FEFD20791F03C
:10074000209719F0229661F710C080E02ADDFDDEC7
:100750009FEF20E782E0915020408040E1F700C009
:100760000000DECF81E0A5DFDBCF80E0A2DFD8CFC5
:04077000F894FFCF2B
:00000001FF
