:1000000090C09DC09CC09BC09AC099C098C097C02A
:1000100096C095C094C093C092C091C090C08FC04C
:100020008EC07F7F7F7F7F7F7F7F7F7C7874716DC5
:100030006B686563615F5D5B5A5856555452515009
:100040004E4D4C4B4A494847464544434342414044
:100050003F3F3E3D3D3C3B3A3A39393837373636FB
:1000600035343433333232313130302F2F2E2E2D80
:100070002D2C2C2B2B2A2A292929282827272626EC
:100080002625252424242323222222212120202046
:100090001F1F1F1E1E1D1D1D1C1C1C1B1B1B1A1A97
:1000A0001A191918181817171716161615151514E2
:1000B000141413131312121211111010100F0F0F2A
:1000C0000E0E0E0D0D0D0C0C0C0B0B0B0A0A090974
:1000D00009080808070707060605050504040303C1
:1000E0000302020101010000FFFFFFFEFEFDFDFC17
:1000F000FCFBFBFAFAF9F9F8F8F7F7F6F6F5F5F480
:10010000F3F3F2F2F1F0F0EFEEEDEDECEBEAE9E80B
:10011000E7E6E5E4E3E2E0DFDDDCDAD8D5D2CEC91C
:10012000C18111241FBECFEDCDBF20E0A0E6B0E01D
:1001300001C01D92A036B207E1F735D268C260CF88
:100140001BBA18BA1ABA87E087BB089581E080BF4E
:1001500083BF089587E886B980E183B98FEF81B9BD
:1001600082E487B90895ECDFF1DFF4DF089587B901
:10017000369A3699FECF369A3699FECF84B125B19C
:1001800090E0922B089583E4F2DFE92FF0E0EE5D3A
:10019000FF4F84910895009729F480B78F7380BF33
:1001A00016BE089590B7906890BF815086BF08959D
:1001B000CF93DF9380E090E0EEDF82E4D8DFEC01C4
:1001C000E2DF0024CC0FDD1F001CCC0FDD1F001C64
:1001D000CD2FD02DC75ED109CA3AD24018F4865F20
:1001E0008A3350F08FEF94E32CE081509040204010
:1001F000E1F700C00000E1CFDF91CF91089548B34F
:1002000021E030E0B90102C0660F771F8A95E2F75E
:10021000CB01842B88BB089598B321E030E002C065
:10022000220F331F8A95E2F72095922398BB0895F9
:10023000BF92CF92DF92EF92FF920F931F93CF93D3
:10024000DF9380E0E9DF81E0DADFC12CD12C760199
:100250000F2EFAE0BF2EF02D8B2D90E09CDF8DE469
:1002600086DF8C018DE483DF0024880F991F001C3A
:10027000880F991F001C892F902D0024000F111F3B
:10028000001C000F111F001C012F102DEC01C00FCE
:10029000D11F8DE46CDF0024880F991F001C880F8C
:1002A000991F001C892F902DC80FD91F8DE45FDF87
:1002B0000024880F991F001C880F991F001C892F8C
:1002C000902DC80FD91FD595C795D595C795C23F15
:1002D00023E0D2071CF080E090E05DDFC83082E0D0
:1002E000D8072CF49DEF9B1548F0B39407C0C93094
:1002F000D24024F08AE08B1508F4BA9491E8C9162C
:100300009EEED90696E3E906F10451F480E090E010
:1003100042DF80E074DF81E07FDF80E090E054C066
:10032000D701C6019770AA27BB278F3F9740A10529
:10033000B105F1F580E090E02EDF8FEF93EC29E03E
:10034000815090402040E1F700C0000082E40FDFC0
:10035000EC0182E40CDF0024880F991F001C880F39
:10036000991F001C892F902D0024CC0FDD1F001C2D
:10037000CC0FDD1F001CCD2FD02DC80FD91FD59558
:10038000C79501DF865F8A3330F080E090E003DFBD
:100390008EEF9FEF19C0C938D34054F080E090E051
:1003A000FADE80E02CDF81E037DF80E090E00CC0F7
:1003B0009FEFC91AD90AE90AF90A8FEC97E0019769
:1003C000F1F700C0000048CFDF91CF911F910F914E
:1003D000FF90EF90DF90CF90BF9008959F92AF92E3
:1003E000BF92CF92DF92EF92FF920F931F93CF9322
:1003F000DF9380E090E0CFDE0F2EFAE0BF2EF02DED
:10040000E12CF12C0F2EF6E99F2EF02DA12C82E489
:10041000AEDEEC01B8DEC03CD94308F47DC0865F97
:100420008A3308F079C08FEF93EC29E08150904037
:100430002040E1F700C000008FEFE81AF80AC7017A
:1004400087709927892B19F781E0D9DE092D1A2D9C
:100450008B2D90E0A0DE8DE48ADE6C018DE487DEDA
:100460000024880F991F001C880F991F001C892FDA
:10047000902D0024CC0CDD1C001CCC0CDD1C001CC1
:10048000CD2CD02CEC01CC0DDD1D8DE470DE0024D4
:10049000880F991F001C880F991F001C892F902D11
:1004A000C80FD91F8DE463DE0024880F991F001C3C
:1004B000880F991F001C892F902DC80FD91FD59523
:1004C000C795D595C795C23F93E0D9071CF080E04A
:1004D00090E061DECA3421E0D2072CF48DEF8B1559
:1004E00048F0B39407C0CB34D14024F02AE02B1558
:1004F00008F4BA948FEC97E00197F1F700C0000080
:10050000015011090115110509F0A2CF81E084DE27
:1005100080E090E040DE7BCF80E07EDE80E090E017
:10052000DF91CF911F910F91FF90EF90DF90CF90CF
:10053000BF90AF909F9008950F931F93CF93DF9339
:1005400080E090E028DEC0E0D0E082E410DE8C01A4
:100550001ADE003C194310F0863F2CF481E05CDE8B
:1005600080E05ADE1BC0CE0187709927009729F4DE
:1005700081E045DE80E050DE06C0039721F481E093
:100580004BDE80E049DE21968FEF90E722E081503C
:1005900090402040E1F700C00000D7CFDF91CF911D
:1005A0001F910F910895DFDD81E029DE2FEF81EEAD
:1005B00094E0215080409040E1F700C0000081E0CD
:1005C0002BDE80E01CDE2FEF81EE94E02150804096
:1005D0009040E1F700C0000080E01EDEE9DD81E030
:1005E0000EDE80E019DE24DE992314F4A5DFF6CFB9
:1005F00081E012DE80E003DEF1DE2FEF80E792E0A3
:10060000215080409040E1F700C00000E7CFF8940F
:02061000FFCF1A
:00000001FF
