:1000000090C095C094C093C092C091C090C08FC062
:100010008EC08DC08CC08BC08AC089C088C087C08C
:1000200086C07F7F7F7F7F7F7F7F7F7F7F7F7F7F98
:100030007D7A7673716E6C6A67656362605E5C5B25
:1000400059585755545351504F4E4D4C4B4A4948AF
:100050004746454443434241403F3F3E3D3C3C3B95
:100060003A3A393838373636353434333332313139
:1000700030302F2F2E2D2D2C2C2B2B2A2A292928BE
:10008000282727262625252524242323222221212B
:100090002020201F1F1E1E1D1D1D1C1C1B1B1A1A8D
:1000A0001A191918181817171616161515141414E6
:1000B000131312121211111010100F0F0E0E0E0D3D
:1000C0000D0C0C0B0B0B0A0A090909080807070796
:1000D00006060505040404030302020101010000F1
:1000E000FFFFFEFEFDFDFCFCFBFBFBFAFAF9F9F855
:1000F000F7F7F6F6F5F5F4F4F3F2F2F1F1F0EFEFCD
:10010000EEEDEDECEBEBEAE9E8E7E7E6E5E4E3E268
:10011000E1E0DEDDDCDAD9D7D6D4D2CFCDC9C5C097
:10012000B78111241FBECFEDCDBF14D2F8C268CF66
:1001300080B78F7380BF16BE08951BBA18BA1ABA5B
:1001400087E087BB089583E080BF81E083BF089587
:1001500087E886B980E183B98FEF81B982E487B9F6
:100160000895EBDFF0DFF4DF29E288E190E00FB6DD
:10017000F894A89581BD0FBE21BD089587B9369A20
:100180003699FECF369A3699FECF84B125B190E0EC
:10019000922B089583E4F2DFE92FF0E0EE5DFF4F4C
:1001A00084910895009709F4C3CF90B7906890BFE9
:1001B000815086BF089598B321E030E0082E01C039
:1001C000220F0A94EAF7922B98BB089598B321E086
:1001D00030E0082E01C0220F0A94EAF72095292367
:1001E00028BB0895CF93DF93C5E0D0E080E0EEDF39
:1001F00081E0E1DF2FEF80E792E0215080409040E6
:10020000E1F700C0000081E0E1DF80E0D4DF2FE70C
:1002100088E391E0215080409040E1F700C0000069
:10022000A8952197209711F780E0D0DF81E0DF913A
:10023000CF91CCCFEF92FF920F931F93CF93DF9389
:1002400077DF81E0C3DFC0E0D0E000E010E082E4CF
:1002500095DF7C019FDF970196E0369527959A956B
:10026000E1F725503109263C334078F4825E803531
:1002700060F42196C530D10554F080E0DF91CF9134
:100280001F910F91FF90EF90A1CFC0E0D0E0C80187
:1002900087709927892B19F480E08DDF02C080E0F8
:1002A00095DF0F5F1F4F2FE789EA93E021508040D1
:1002B0009040E1F700C00000A895C9CF87E45EDF59
:1002C000692F6695669570E0CB010297CC9710F088
:1002D00060E270E06C5B7F4F882777FD8095982FF8
:1002E00022E632E040E050E080D1B901CA0124E6C4
:1002F00030E040E050E05DD1C90108957F928F92D7
:100300009F92AF92BF92CF92DF92EF92FF920F93A4
:100310001F93CF93DF93D2DF6C0180E057DF81E042
:100320004ADFA12CB12CE12CF12C00E010E0BAE066
:100330007B2E872D90E036DF8DE420DF4C018DE4AD
:100340001DDFEC0166E0D695C7956A95E1F776E08A
:10035000969487947A95E1F7C80DD91D8DE40EDF48
:10036000E6E096958795EA95E1F7C80FD91F8DE4E9
:1003700005DFF6E096958795FA95E1F7C80FD91F46
:10038000D595C795D595C795CE3F83E0D8073CF462
:100390009AE0791208C0C73D81E0D80774F0C8DE42
:1003A0008FEF9FEF75C09EEF791207C0C333D10561
:1003B00024F4BEDE8CEF9FEF6BC0ECDE823E24F4B3
:1003C000B7DE8BEF9FEF64C0823324F0B1DE80E0B4
:1003D00090E05EC0CC15DD052CF48DEF871540F064
:1003E000739406C0CC16DD061CF49AE079127A9458
:1003F00001318EE0180754F7A016B106A1F15EDFB7
:100400006C01A895093B9BE0190764F191DE82E439
:10041000B5DE5C0182E4B2DEEC0126E0D695C7953C
:100420002A95E1F736E0B694A7943A95E1F7CA0D1C
:10043000DB1D82E4A3DE46E0969587954A95E1F7B9
:10044000C80FD91F82E49ADE56E0969587955A9593
:10045000E1F7C80FD91F872D90E0A4DEC031DE4040
:100460000CF0B4CF58019FEFE91AF90A81E3E816BE
:1004700081E0F80634F090E3E91A91E0F90A0F5FA1
:100480001F4F8FEC97E00197F1F700C0000051CFAC
:10049000DF91CF911F910F91FF90EF90DF90CF9060
:1004A000BF90AF909F908F907F900895CF93DF93F0
:1004B0003FDE80E080DE81E089DE82E45FDEEC0109
:1004C00069DEC034D14068F0823E5CF08FEF93EC7F
:1004D00029E0815090402040E1F700C00000A8953D
:1004E000ECCF80E073DE80E090E0DF91CF91089563
:1004F000FF920F931F93CF93DF93F82E19DEC0E086
:10050000D0E082E43BDE8C0145DE0034114010F087
:10051000823E3CF481E0DF91CF911F910F91FF90DB
:1005200055CEC0FD05C081E046DE80E04FDE06C04E
:1005300081E04CDEFF2011F080E03DDE21969FEF50
:1005400021EE84E0915020408040E1F700C000009F
:10055000A895D7CF06DE46DE6DDE81E02CDE80E09A
:1005600035DECCDEEC0181E031DEE2DDCE3F2FEF87
:10057000D20789F02CF4249679F780E0B9DF0EC019
:10058000CF3F2FEFD20729F0CD2B31F780E013DEDC
:1005900005C081E001C080E0ABDFDECF87DF8FEFF9
:1005A00090E722E0815090402040E1F700C0000039
:1005B000D3CF052E97FB16F400940FD057FD05D02E
:1005C0005ED007FC02D046F408C0509540953095A7
:1005D00021953F4F4F4F5F4F0895909580957095AF
:1005E00061957F4F8F4F9F4F089568940013E89453
:1005F000A0E0B0E0EDEFF2E01DC0EFEFE7F9590148
:100600006A015E23550FEE08FE2C87019B01AC01A9
:100610009E23990F660B762FCB0153D0CDB7DD27E4
:10062000EAE01FC02F923F924F925F926F927F92AB
:100630008F929F92AF92BF92CF92DF92EF92FF92F2
:100640000F931F93CF93DF93CDB7CA1BCDBFDD2789
:1006500009942A88398848885F846E847D848C84D4
:100660009B84AA84B984C884DF80EE80FD800C81DD
:100670001B81AA81D981CE0FCDBFCA2F0895A1E2D7
:100680001A2EAA1BBB1BFD010DC0AA1FBB1FEE1F0C
:10069000FF1FA217B307E407F50720F0A21BB30B57
:1006A000E40BF50B661F771F881F991F1A9469F7D3
:1006B00060957095809590959B01AC01BD01CF012F
:1006C0000895DF93CF939F92A0E49A2E0024D00147
:1006D000E001F00116950795F794E794D794C79435
:1006E000B794A79448F41068A20FB31FC41FD51F76
:1006F000E61FF71F081E191E220F331F441F551F28
:10070000661F771F881F991F9A9421F79D01AE01DC
:10071000BF01C00111249F90CF91DF910895F894FB
:02072000FFCF09
:00000001FF
