:1000000090C095C094C093C092C091C090C08FC062
:100010008EC08DC08CC08BC08AC089C088C087C08C
:1000200086C07F7F7F7F7F7F7F7F7F7C7874716DCD
:100030006B686563615F5D5B5A5856555452515009
:100040004E4D4C4B4A494847464544434342414044
:100050003F3F3E3D3D3C3B3A3A39393837373636FB
:1000600035343433333232313130302F2F2E2E2D80
:100070002D2C2C2B2B2A2A292929282827272626EC
:100080002625252424242323222222212120202046
:100090001F1F1F1E1E1D1D1D1C1C1C1B1B1B1A1A97
:1000A0001A191918181817171716161615151514E2
:1000B000141413131312121211111010100F0F0F2A
:1000C0000E0E0E0D0D0D0C0C0C0B0B0B0A0A090974
:1000D00009080808070707060605050504040303C1
:1000E0000302020101010000FFFFFFFEFEFDFDFC17
:1000F000FCFBFBFAFAF9F9F8F8F7F7F6F6F5F5F480
:10010000F3F3F2F2F1F0F0EFEEEDEDECEBEAE9E80B
:10011000E7E6E5E4E3E2E0DFDDDCDAD8D5D2CEC91C
:10012000C18111241FBECFEDCDBF8FD2B4C268CF25
:1001300080B78F7380BF16BE08951BBA18BA1ABA5B
:1001400087E087BB089583E080BF81E083BF089587
:1001500087E886B980E183B98FEF81B982E487B9F6
:100160000895EBDFF0DFF4DF29E288E190E00FB6DD
:10017000F894A89581BD0FBE21BD089587B9369A20
:100180003699FECF369A3699FECF84B125B190E0EC
:10019000922B089583E4F2DFE92FF0E0EE5DFF4F4C
:1001A00084910895009709F4C3CF90B7906890BFE9
:1001B000815086BF089598B321E030E0082E01C039
:1001C000220F0A94EAF7922B98BB089598B321E086
:1001D00030E0082E01C0220F0A94EAF72095292367
:1001E00028BB0895CF93DF93C5E0D0E080E0EEDF39
:1001F00081E0E1DF2FEF80E792E0215080409040E6
:10020000E1F700C0000081E0E1DF80E0D4DF2FE70C
:1002100088E391E0215080409040E1F700C0000069
:10022000A8952197209711F780E0D0DF81E0DF913A
:10023000CF91CCCFEF92FF920F931F93CF93DF9389
:1002400077DF81E0C3DFC0E0D0E000E010E082E4CF
:1002500095DF7C019FDF96E0F694E7949A95E1F7AD
:1002600027EEE21AF1089AEAE91692E0F90678F424
:10027000865F8C3360F42196C530D10554F080E060
:10028000DF91CF911F910F91FF90EF909FCFC0E032
:10029000D0E0C80187709927892B19F480E08BDFA3
:1002A00002C080E093DF0F5F1F4F2FE789EA93E0E2
:1002B000215080409040E1F700C00000A895C7CFD2
:1002C0005F926F927F928F929F92AF92BF92CF92E6
:1002D000DF92EF92FF920F931F93CF93DF9380E013
:1002E00075DF81E068DF812C912CC12CD12CA12CF1
:1002F000B12CE12CF12C00E010E0CAE05C2E852D41
:1003000090E050DF8DE43ADF3C018DE437DFEC0113
:1003100076E0D695C7957A95E1F7E6E0769467940E
:10032000EA95E1F7C60DD71D8DE428DFF6E0969536
:100330008795FA95E1F7C80FD91F8DE41FDFA6E076
:1003400096958795AA95E1F7C80FD91FD595C795BA
:10035000D595C795CE3F23E0D2073CF48AE05812EA
:1003600008C0CE3592E0D90724F0E2DE8FEF9FEF90
:1003700094C0CD2839F0CB30D10574F4D9DE8CEFA0
:100380009FEF8BC091E080E0CD3221E0D2070CF4EA
:1003900090E0C92ED82E03C0CC24C394D12CFADE11
:1003A000863F64F3823324F0C3DE8EEF9FEF75C087
:1003B000CD3582E0D8072CF49DEF951540F053948D
:1003C00006C0CD35D24019F08AE058125A94013156
:1003D0009EE0190724F0ACDE80E090E05EC0A0163D
:1003E000B10609F445C0A895C80183709927892BE7
:1003F000F1F582E4C3DEEC0182E4C0DE46E09695CE
:1004000087954A95E1F756E0D695C7955A95E1F755
:100410008C0F9D1F8031974054F18ADE8FEF94E35B
:100420002CE0815090402040E1F700C0000088E9B6
:10043000E80EF11C9FEF891A990A82E49FDEEC0115
:1004400082E49CDE26E0969587952A95E1F736E0D2
:10045000D695C7953A95E1F78C0F9D1F8E30974042
:100460000CF0B9CF8CE4881691040CF0B4CF58018D
:100470009FEFE91AF90A22E3E21621E0F20634F0CE
:1004800081E3E81A81E0F80A0F5F1F4F8FEC97E0D5
:100490000197F1F700C0000032CFDF91CF911F919B
:1004A0000F91FF90EF90DF90CF90BF90AF909F9013
:1004B0008F907F906F905F900895BF92CF92DF9260
:1004C000EF92FF920F931F93CF93DF9331DE80E083
:1004D00072DE81E07BDE6AE0B62E00E010E082E4AE
:1004E0004DDEEC0157DEC03CD94308F46EC0865F98
:1004F0008C3308F06AC0C80187709927892B09F0EE
:1005000057C081E058DE56E9E52EF12C8B2D90E0A6
:1005100049DE8DE433DE6C018DE430DEEC0186E0F3
:10052000D695C7958A95E1F796E0D694C7949A95A3
:10053000E1F7CC0DDD1D8DE421DE26E09695879553
:100540002A95E1F7C80FD91F8DE418DE36E096959D
:1005500087953A95E1F78C0F9D1F95958795959511
:1005600087958E3F23E0920724F0E2DD8FEF9FEF27
:1005700030C08A3421E092072CF48DEF8B1540F0C7
:10058000B39406C08A34914019F08AE0B812BA9444
:100590008FEC97E00197F1F700C0000091E0E91AB5
:1005A000F108E114F10409F0B1CF81E00FDEC0DD04
:1005B0000F5F1F4F2FEF83EC99E021508040904058
:1005C000E1F700C00000A8958ACF80E0FFDD80E061
:1005D00090E0DF91CF911F910F91FF90EF90DF900E
:1005E000CF90BF900895FF920F931F93CF93DF9307
:1005F000F82E9EDDC0E0D0E082E4C0DD8C01CADDD3
:10060000003C194310F0863F3CF481E0DF91CF912C
:100610001F910F91FF90DACDC0FD05C081E0CBDDC9
:1006200080E0D4DD06C081E0D1DDFF2011F080E064
:10063000C2DD21969FEF21EE84E091502040804062
:10064000E1F700C00000A895D7CF8BDDCBDDF2DD50
:1006500081E0B1DD80E0BADD33DEEC0181E0B6DDC2
:1006600067DDCF3F2FEFD20799F0209721F0229638
:1006700071F780E00EC080E09EDD1FDF9FEF20E776
:1006800082E0915020408040E1F700C00000DFCFC1
:0A06900081E0A9DFDCCFF894FFCF72
:00000001FF
