:1000000090C095C094C093C092C091C090C08FC062
:100010008EC08DC08CC08BC08AC089C088C087C08C
:1000200086C07F7F7F7F7F7F7F7F7F7F7F7F7F7F98
:100030007D7A7673716E6C6A67656362605E5C5B25
:1000400059585755545351504F4E4D4C4B4A4948AF
:100050004746454443434241403F3F3E3D3C3C3B95
:100060003A3A393838373636353434333332313139
:1000700030302F2F2E2D2D2C2C2B2B2A2A292928BE
:10008000282727262625252524242323222221212B
:100090002020201F1F1E1E1D1D1D1C1C1B1B1A1A8D
:1000A0001A191918181817171616161515141414E6
:1000B000131312121211111010100F0F0E0E0E0D3D
:1000C0000D0C0C0B0B0B0A0A090909080807070796
:1000D00006060505040404030302020101010000F1
:1000E000FFFFFEFEFDFDFCFCFBFBFBFAFAF9F9F855
:1000F000F7F7F6F6F5F5F4F4F3F2F2F1F1F0EFEFCD
:10010000EEEDEDECEBEBEAE9E8E7E7E6E5E4E3E268
:10011000E1E0DEDDDCDAD9D7D6D4D2CFCDC9C5C097
:10012000B78111241FBECFEDCDBFEED11CC268CF69
:1001300080B78F7380BF16BE08951BBA18BA1ABA5B
:1001400087E087BB089583E080BF81E083BF089587
:1001500087E886B980E183B98FEF81B982E487B9F6
:100160000895EBDFF0DFF4DF29E288E190E00FB6DD
:10017000F894A89581BD0FBE21BD089587B9369A20
:100180003699FECF369A3699FECF84B125B190E0EC
:10019000922B089583E4F2DFE92FF0E0EE5DFF4F4C
:1001A00084910895009709F4C3CF90B7906890BFE9
:1001B000815086BF089598B321E030E0082E01C039
:1001C000220F0A94EAF7922B98BB089598B321E086
:1001D00030E0082E01C0220F0A94EAF72095292367
:1001E00028BB0895CF93DF93C5E0D0E080E0EEDF39
:1001F00081E0E1DF2FEF80E792E0215080409040E6
:10020000E1F700C0000081E0E1DF80E0D4DF2FE70C
:1002100088E391E0215080409040E1F700C0000069
:10022000A8952197209711F780E0D0DF81E0DF913A
:10023000CF91CCCFEF92FF920F931F93CF93DF9389
:1002400077DF81E0C3DFC0E0D0E000E010E082E4CF
:1002500095DF7C019FDF970196E0369527959A956B
:10026000E1F725503109263C334078F4825E803531
:1002700060F42196C530D10554F080E0DF91CF9134
:100280001F910F91FF90EF90A1CFC0E0D0E0C80187
:1002900087709927892B19F480E08DDF02C080E0F8
:1002A00095DF0F5F1F4F2FE789EA93E021508040D1
:1002B0009040E1F700C00000A895C9CF9F92AF928F
:1002C000BF92CF92DF92EF92FF920F931F93CF9343
:1002D000DF9380E07BDF81E06EDFC12CD12CE12C4D
:1002E000F12C00E010E0BAE09B2E892D90E05ADF5F
:1002F0008DE444DF5C018DE441DFEC0166E0D695DE
:10030000C7956A95E1F776E0B694A7947A95E1F7F8
:10031000CA0DDB1D8DE432DFE6E096958795EA9500
:10032000E1F7C80FD91F8DE429DFF6E09695879590
:10033000FA95E1F7C80FD91FD595C795D595C795FB
:10034000CE3F83E0D8073CF49AE0991208C0C23D42
:1003500081E0D80774F0ECDE8FEF9FEF74C09EEF62
:10036000991207C0C333D10524F4E2DE8CEF9FEF6E
:100370006AC010DF823E24F4DBDE8BEF9FEF63C0A8
:10038000823324F0D5DE80E090E05DC0CB3582E0A2
:10039000D8072CF49DEF991540F0939406C0CB3507
:1003A000D24019F09AE099129A9401318EE0180720
:1003B0004CF7C016D10691F1A895093B9BE01907AF
:1003C00064F1B6DE82E4DADE6C0182E4D7DEEC01B1
:1003D00026E0D695C7952A95E1F736E0D694C794DE
:1003E0003A95E1F7CC0DDD1D82E4C8DE46E0969536
:1003F00087954A95E1F7C80FD91F82E4BFDE56E022
:10040000969587955A95E1F7C80FD91F892D90E0E9
:10041000C9DEC031DE400CF0B5CF68019FEFE91AAC
:10042000F90A81E3E81681E0F80634F090E3E91A6E
:1004300091E0F90A0F5F1F4F8FEC97E00197F1F7FA
:1004400000C0000052CFDF91CF911F910F91FF901C
:10045000EF90DF90CF90BF90AF909F900895CF9393
:10046000DF9366DE80E0A7DE81E0B0DE82E486DE38
:10047000EC0190DEC034D14070F0825E803558F4DB
:100480008FEF93EC29E0815090402040E1F700C0CD
:100490000000A895EBCF80E099DE80E090E0DF914E
:1004A000CF910895FF920F931F93CF93DF93F82E70
:1004B0003FDEC0E0D0E082E461DE8C016BDE003420
:1004C000114010F0823E3CF481E0DF91CF911F910A
:1004D0000F91FF907BCEC0FD05C081E06CDE80E017
:1004E00075DE06C081E072DEFF2011F080E063DE81
:1004F00021969FEF21EE84E0915020408040E1F76B
:1005000000C00000A895D7CF2CDE6CDE93DE81E022
:1005100052DE80E05BDED2DEEC0181E057DE08DEF9
:10052000CE3F2FEFD20789F02CF4249679F780E0A4
:10053000B9DF0EC0CF3F2FEFD20729F0CD2B31F717
:1005400080E039DE05C081E001C080E0ABDFDECFB6
:1005500086DF8FEF90E722E0815090402040E1F766
:0A05600000C00000D3CFF894FFCFD5
:00000001FF
