:1000000090C095C094C093C092C091C090C08FC062
:100010008EC08DC08CC08BC08AC089C088C087C08C
:1000200086C07F7F7F7F7F7F7F7F7F7F7F7F7F7F98
:100030007D7A7673716E6C6A67656362605E5C5B25
:1000400059585755545351504F4E4D4C4B4A4948AF
:100050004746454443434241403F3F3E3D3C3C3B95
:100060003A3A393838373636353434333332313139
:1000700030302F2F2E2D2D2C2C2B2B2A2A292928BE
:10008000282727262625252524242323222221212B
:100090002020201F1F1E1E1D1D1D1C1C1B1B1A1A8D
:1000A0001A191918181817171616161515141414E6
:1000B000131312121211111010100F0F0E0E0E0D3D
:1000C0000D0C0C0B0B0B0A0A090909080807070796
:1000D00006060505040404030302020101010000F1
:1000E000FFFFFEFEFDFDFCFCFBFBFBFAFAF9F9F855
:1000F000F7F7F6F6F5F5F4F4F3F2F2F1F1F0EFEFCD
:10010000EEEDEDECEBEBEAE9E8E7E7E6E5E4E3E268
:10011000E1E0DEDDDCDAD9D7D6D4D2CFCDC9C5C097
:10012000B78111241FBECFEDCDBFFFD124C268CF50
:1001300080B78F7380BF16BE08951BBA18BA1ABA5B
:1001400087E087BB089583E080BF81E083BF089587
:1001500087E886B980E183B98FEF81B982E487B9F6
:100160000895EBDFF0DFF4DF29E288E190E00FB6DD
:10017000F894A89581BD0FBE21BD089587B9369A20
:100180003699FECF369A3699FECF84B125B190E0EC
:10019000922B089583E4F2DFE92FF0E0EE5DFF4F4C
:1001A00084910895009709F4C3CF90B7906890BFE9
:1001B000815086BF089598B321E030E0082E01C039
:1001C000220F0A94EAF7922B98BB089598B321E086
:1001D00030E0082E01C0220F0A94EAF72095292367
:1001E00028BB0895CF93DF93C5E0D0E080E0EEDF39
:1001F00081E0E1DF2FEF80E792E0215080409040E6
:10020000E1F700C0000081E0E1DF80E0D4DF2FE70C
:1002100088E391E0215080409040E1F700C0000069
:10022000A8952197209711F780E0D0DF81E0DF913A
:10023000CF91CCCFEF92FF920F931F93CF93DF9389
:1002400077DF81E0C3DFC0E0D0E000E010E082E4CF
:1002500095DF7C019FDF970196E0369527959A956B
:10026000E1F725503109263C334078F4825E803531
:1002700060F42196C530D10554F080E0DF91CF9134
:100280001F910F91FF90EF90A1CFC0E0D0E0C80187
:1002900087709927892B19F480E08DDF02C080E0F8
:1002A00095DF0F5F1F4F2FE789EA93E021508040D1
:1002B0009040E1F700C00000A895C9CF7F928F92CF
:1002C0009F92AF92BF92CF92DF92EF92FF920F93E5
:1002D0001F93CF93DF9380E079DF81E06CDFE12C27
:1002E000F12CA12CB12CC12CD12C00E010E0CAE0E3
:1002F0007C2E872D90E056DF8DE440DF4C018DE4AD
:100300003DDFEC0176E0D695C7957A95E1F7E6E01A
:1003100096948794EA95E1F7C80DD91D8DE42EDFF8
:10032000F6E096958795FA95E1F7C80FD91F8DE409
:1003300025DFA6E096958795AA95E1F7C80FD91F06
:10034000D595C795D595C795CE3F23E0D2073CF408
:100350008AE0781208C0CE3592E0D90724F0E8DEB2
:100360008FEF9FEF7FC0EF2839F0CB30D10574F4C9
:10037000DFDE8CEF9FEF76C091E080E0CD3221E0B0
:10038000D2070CF490E0E92EF82E03C0EE24E3949B
:10039000F12C00DF823E64F3823324F0C9DE8EEF5D
:1003A0009FEF60C0CD3582E0D8072CF49DEF971504
:1003B00040F0739406C0CD35D24019F08AE078122F
:1003C0007A9401319EE0190724F0B2DE80E090E0DB
:1003D00049C0A016B10689F1A895093B2BE0120788
:1003E0005CF1A6DE82E4CADE5C0182E4C7DEEC01D9
:1003F00026E0D695C7952A95E1F736E0B694A794FE
:100400003A95E1F7CA0DDB1D82E4B8DE46E0969529
:1004100087954A95E1F7C80FD91F82E4AFDE56E011
:10042000969587955A95E1F7C80FD91F872D90E0CB
:10043000B9DEC031DE404CF658019FEFC91AD90A27
:1004400021E3C21621E0D20634F080E3C81A81E02D
:10045000D80A0F5F1F4F8FEC97E00197F1F700C0AC
:10046000000047CFDF91CF911F910F91FF90EF9048
:10047000DF90CF90BF90AF909F908F907F90089526
:10048000CF93DF9355DE80E096DE81E09FDE82E44D
:1004900075DEEC017FDEC034D14070F0825E8035C5
:1004A00058F48FEF93EC29E0815090402040E1F721
:1004B00000C00000A895EBCF80E088DE80E090E0EF
:1004C000DF91CF910895FF920F931F93CF93DF9306
:1004D000F82E2EDEC0E0D0E082E450DE8C015ADE41
:1004E0000034114010F0823E3CF481E0DF91CF9166
:1004F0001F910F91FF906ACEC0FD05C081E05BDEC9
:1005000080E064DE06C081E061DEFF2011F080E063
:1005100052DE21969FEF21EE84E0915020408040F2
:10052000E1F700C00000A895D7CF1BDE5BDE82DEBE
:1005300081E041DE80E04ADEC1DEEC0181E046DEA2
:10054000F7DDCF3F2FEFD20799F0209721F02296C9
:1005500071F780E00EC080E02EDE92DF9FEF20E793
:1005600082E0915020408040E1F700C00000DFCFE2
:0A05700081E0A9DFDCCFF894FFCF93
:00000001FF
