:1000000090C095C094C093C092C091C090C08FC062
:100010008EC08DC08CC08BC08AC089C088C087C08C
:1000200086C07F7F7F7F7F7F7F7F7F7C7874716DCD
:100030006B686563615F5D5B5A5856555452515009
:100040004E4D4C4B4A494847464544434342414044
:100050003F3F3E3D3D3C3B3A3A39393837373636FB
:1000600035343433333232313130302F2F2E2E2D80
:100070002D2C2C2B2B2A2A292929282827272626EC
:100080002625252424242323222222212120202046
:100090001F1F1F1E1E1D1D1D1C1C1C1B1B1B1A1A97
:1000A0001A191918181817171716161615151514E2
:1000B000141413131312121211111010100F0F0F2A
:1000C0000E0E0E0D0D0D0C0C0C0B0B0B0A0A090974
:1000D00009080808070707060605050504040303C1
:1000E0000302020101010000FFFFFFFEFEFDFDFC17
:1000F000FCFBFBFAFAF9F9F8F8F7F7F6F6F5F5F480
:10010000F3F3F2F2F1F0F0EFEEEDEDECEBEAE9E80B
:10011000E7E6E5E4E3E2E0DFDDDCDAD8D5D2CEC91C
:10012000C18111241FBECFEDCDBF69D28EC268CF71
:1001300080B78F7380BF16BE08951BBA18BA1ABA5B
:1001400087E087BB089583E080BF81E083BF089587
:1001500087E886B980E183B98FEF81B982E487B9F6
:100160000895EBDFF0DFF4CF87B9369A3699FECFEA
:10017000369A3699FECF84B125B190E0922B08953E
:1001800083E4F2DFE92FF0E0EE5DFF4F8491089504
:10019000009709F4CDCF90B7906890BF815086BF8B
:1001A000089598B321E030E0082E01C0220F0A9490
:1001B000EAF7922B98BB089598B321E030E0082E1F
:1001C00001C0220F0A94EAF72095292328BB08953D
:1001D000CF93DF93C5E0D0E080E0EEDF81E0E1DFA8
:1001E0002FEF80E792E0215080409040E1F700C07F
:1001F000000081E0E1DF80E0D4DF2FE788E391E0D9
:10020000215080409040E1F700C0000021972097E6
:1002100019F780E0D1DF81E0DF91CF91CDCFEF9270
:10022000FF920F931F93CF93DF9382DF81E0C4DFB0
:10023000C0E0D0E000E010E082E496DF7C01A0DFC7
:1002400096E0F694E7949A95E1F727EEE21AF10822
:100250009AEAE91692E0F90678F4865F8C3360F446
:100260002196C530D10554F080E0DF91CF911F91E8
:100270000F91FF90EF90A0CFC0E0D0E0C801877051
:100280009927892B19F480E08CDF02C080E094DF8D
:100290000F5F1F4F2FE789EA93E021508040904085
:1002A000E1F700C00000C8CF7F928F929F92AF927B
:1002B000BF92CF92DF92EF92FF920F931F93CF9353
:1002C000DF9380E079DF81E06CDFC12CD12CA12CA1
:1002D000B12CE12CF12C00E010E0CAE07C2E872D3F
:1002E00090E056DF8DE440DF4C018DE43DDFEC0112
:1002F00076E0D695C7957A95E1F7E6E096948794EF
:10030000EA95E1F7C80DD91D8DE42EDFF6E096954C
:100310008795FA95E1F7C80FD91F8DE425DFA6E090
:1003200096958795AA95E1F7C80FD91FD595C795DA
:10033000D595C795CE3F23E0D20724F0F9DE8FEFA5
:100340009FEF8AC0CD2839F0CB30D10574F4F0DEB0
:100350008CEF9FEF81C091E080E0CD3221E0D207A9
:100360000CF490E0C92ED82E03C0CC24C394D12C19
:1003700007DF863F64F3823324F0DADE8EEF9FEFEF
:100380006BC0CD3582E0D8072CF49DEF971540F077
:10039000739406C0CD35D24019F08AE078127A9471
:1003A00001319EE0190724F0C3DE80E090E054C0E4
:1003B000A016B106E1F1C80183709927892BB1F528
:1003C00082E4D2DEEC0182E4CFDE46E096958795AA
:1003D0004A95E1F756E0D695C7955A95E1F78C0F07
:1003E0009D1F8231974014F1A3DE8FEF94E32CE040
:1003F000815090402040E1F700C0000088E9E80EFD
:10040000F11C82E4B1DEEC0182E4AEDE26E09695DA
:1004100087952A95E1F736E0D695C7953A95E1F7A5
:100420008C0F9D1F803197400CF0BECF58018FEF8D
:10043000E81AF80A92E3E91691E0F90634F021E3AC
:10044000E21A21E0F20A0F5F1F4F8FEC97E001974D
:10045000F1F700C0000043CFDF91CF911F910F91C2
:10046000FF90EF90DF90CF90BF90AF909F908F90D4
:100470007F900895BF92CF92DF92EF92FF920F93F9
:100480001F93CF93DF9354DE80E08BDE81E094DE18
:100490006AE0B62E00E010E082E466DEEC0170DE79
:1004A000C03CD94308F46CC0865F8C3308F068C048
:1004B0008FEF93EC29E0815090402040E1F700C09D
:1004C00000000F5F1F4FC80187709927892B21F704
:1004D00081E067DE56E9E52EF12C8B2D90E058DEA9
:1004E0008DE442DE6C018DE43FDEEC0186E0D695C2
:1004F000C7958A95E1F796E0D694C7949A95E1F767
:10050000CC0DDD1D8DE430DE26E0969587952A958D
:10051000E1F7C80FD91F8DE427DE36E09695879561
:100520003A95E1F78C0F9D1F959587959595879541
:100530008E3F23E0920724F0FBDD8FEF9FEF24C076
:100540008A3421E092072CF48DEF8B1540F0B394A0
:1005500006C08A34914019F08AE0B812BA948FEC40
:1005600097E00197F1F700C0000091E0E91AF10867
:10057000E114F10409F0B1CF81E01EDED9DD8CCFAA
:1005800080E01ADE80E090E0DF91CF911F910F9123
:10059000FF90EF90DF90CF90BF900895FF920F9360
:1005A0001F93CF93DF93F82EC3DDC0E0D0E082E449
:1005B000DBDD8C01E5DD003C194310F0863F3CF4A7
:1005C00081E0DF91CF911F910F91FF90F5CDC0FD9C
:1005D00005C081E0E6DD80E0EFDD06C081E0ECDD16
:1005E000FF2011F080E0DDDD21969FEF21EE84E019
:1005F000915020408040E1F700C00000D8CFB1DD2D
:10060000E7DD0DDE81E0CDDD80E0D6DD4DDEEC0105
:1006100081E0D2DD8DDDCF3F2FEFD20799F020971B
:1006200021F0229671F780E00EC080E0BADD22DF73
:100630009FEF20E782E0915020408040E1F700C02A
:0E0640000000DFCF81E0AADFDCCFF894FFCF0F
:00000001FF
