:1000000090C095C094C093C092C091C090C08FC062
:100010008EC08DC08CC08BC08AC089C088C087C08C
:1000200086C07F7F7F7F7F7F7F7F7F7C7874716DCD
:100030006B686563615F5D5B5A5856555452515009
:100040004E4D4C4B4A494847464544434342414044
:100050003F3F3E3D3D3C3B3A3A39393837373636FB
:1000600035343433333232313130302F2F2E2E2D80
:100070002D2C2C2B2B2A2A292929282827272626EC
:100080002625252424242323222222212120202046
:100090001F1F1F1E1E1D1D1D1C1C1C1B1B1B1A1A97
:1000A0001A191918181817171716161615151514E2
:1000B000141413131312121211111010100F0F0F2A
:1000C0000E0E0E0D0D0D0C0C0C0B0B0B0A0A090974
:1000D00009080808070707060605050504040303C1
:1000E0000302020101010000FFFFFFFEFEFDFDFC17
:1000F000FCFBFBFAFAF9F9F8F8F7F7F6F6F5F5F480
:10010000F3F3F2F2F1F0F0EFEEEDEDECEBEAE9E80B
:10011000E7E6E5E4E3E2E0DFDDDCDAD8D5D2CEC91C
:10012000C18111241FBECFEDCDBF12D237C268CF1F
:1001300080B78F7380BF16BE08951BBA18BA1ABA5B
:1001400087E087BB089583E080BF81E083BF089587
:1001500087E886B980E183B98FEF81B982E487B9F6
:100160000895EBDFF0DFF4DF29E288E190E00FB6DD
:10017000F894A89581BD0FBE21BD089587B9369A20
:100180003699FECF369A3699FECF84B125B190E0EC
:10019000922B089583E4F2DFE92FF0E0EE5DFF4F4C
:1001A00084910895009709F4C3CF90B7906890BFE9
:1001B000815086BF089598B321E030E0082E01C039
:1001C000220F0A94EAF7922B98BB089598B321E086
:1001D00030E0082E01C0220F0A94EAF72095292367
:1001E00028BB0895CF93DF93C5E0D0E080E0EEDF39
:1001F00081E0E1DF2FEF80E792E0215080409040E6
:10020000E1F700C0000081E0E1DF80E0D4DF2FE70C
:1002100088E391E0215080409040E1F700C0000069
:10022000A8952197209711F780E0D0DF81E0DF913A
:10023000CF91CCCFEF92FF920F931F93CF93DF9389
:1002400077DF81E0C3DFC0E0D0E000E010E082E4CF
:1002500095DF7C019FDF96E0F694E7949A95E1F7AD
:1002600027EEE21AF1089AEAE91692E0F90678F424
:10027000865F8C3360F42196C530D10554F080E060
:10028000DF91CF911F910F91FF90EF909FCFC0E032
:10029000D0E0C80187709927892B19F480E08BDFA3
:1002A00002C080E093DF0F5F1F4F2FE789EA93E0E2
:1002B000215080409040E1F700C00000A895C7CFD2
:1002C0007F928F929F92AF92BF92CF92DF92EF92E6
:1002D000FF920F931F93CF93DF9380E077DF81E04E
:1002E0006ADFC12CD12CA12CB12CE12CF12C00E027
:1002F00010E0CAE07C2E872D90E054DF8DE43EDFD5
:100300004C018DE43BDFEC0176E0D695C7957A95FC
:10031000E1F7E6E096948794EA95E1F7C80DD91DD8
:100320008DE42CDFF6E096958795FA95E1F7C80FF6
:10033000D91F8DE423DFA6E096958795AA95E1F76E
:10034000C80FD91FD595C795D595C795CE3F23E042
:10035000D2073CF48AE0781208C0CE3592E0D90783
:1003600024F0E6DE8FEF9FEF90C0CD2839F0CB3040
:10037000D10574F4DDDE8CEF9FEF87C091E080E063
:10038000CD3221E0D2070CF490E0C92ED82E03C064
:10039000CC24C394D12CFEDE863F64F3823324F058
:1003A000C7DE8EEF9FEF71C0CD3582E0D8072CF409
:1003B0009DEF971540F0739406C0CD35D24019F0EB
:1003C0008AE078127A9401319EE0190724F0B0DEB9
:1003D00080E090E05AC0A016B10609F441C0093B84
:1003E0002BE01207ECF1A895C80183709927892B9F
:1003F000B1F582E4C3DEEC0182E4C0DE46E096950E
:1004000087954A95E1F756E0D695C7955A95E1F755
:100410008C0F9D1F8031974014F18ADE8FEF94E39B
:100420002CE0815090402040E1F700C0000088E9B6
:10043000E80EF11C82E4A2DEEC0182E49FDE26E0FD
:10044000969587952A95E1F736E0D695C7953A9522
:10045000E1F78C0F9D1F8E3097400CF0B8CF5801FC
:100460008FEFE81AF80A92E3E91691E0F90634F002
:1004700021E3E21A21E0F20A0F5F1F4F8FEC97E0B1
:100480000197F1F700C0000036CFDF91CF911F91A7
:100490000F91FF90EF90DF90CF90BF90AF909F9023
:1004A0008F907F900895CF93DF9342DE80E083DECC
:1004B00081E08CDE82E462DEEC016CDEC03CD9437C
:1004C00070F0865F8C3358F48FEF93EC29E0815005
:1004D00090402040E1F700C00000A895EBCF80E0FD
:1004E00075DE80E090E0DF91CF910895FF920F9349
:1004F0001F93CF93DF93F82E1BDEC0E0D0E082E4A1
:100500003DDE8C0147DE003C194310F0863F3CF491
:1005100081E0DF91CF911F910F91FF9057CEC0FDE9
:1005200005C081E048DE80E051DE06C081E04EDE9D
:10053000FF2011F080E03FDE21969FEF21EE84E066
:10054000915020408040E1F700C00000A895D7CF2F
:1005500008DE48DE6FDE81E02EDE80E037DEB0DED2
:10056000EC0181E033DEE4DDCF3F2FEFD20799F0DD
:10057000209721F0229671F780E00EC080E01BDE0C
:1005800092DF9FEF20E782E0915020408040E1F72A
:1005900000C00000DFCF81E0A9DFDCCFF894FFCFFF
:00000001FF
